S01200006C616E647A6F206B32782E7372656355
S1130000E0F7FF1F493F0000B93D0000B93D000083
S1130010B93D0000B93D0000B93D0000B93D000004
S1130020B93D0000B93D0000B93D0000B93D0000F4
S1130030B93D0000B93D0000B93D0000B93D0000E4
S1130040B93D0000B93D0000B93D0000B93D0000D4
S1130050B93D0000B93D0000B93D0000B93D0000C4
S1130060B93D0000B93D0000B93D0000B93D0000B4
S1130070B93D0000B93D0000B93D0000B93D0000A4
S1130080B93D0000B93D0000B93D0000B93D000094
S1130090B93D0000B93D0000B93D0000B93D000084
S11300A0B93D0000B93D0000B93D0000B93D000074
S11300B0B93D0000B93D0000B93D0000B93D000064
S1130410F1B5A2B014001F00049100200D900AE071
S11304200498229A90470490002800D1CBE20D98BA
S1130430401C0D90641C2178002901D10D98C4E260
S11304402529EDD100200790089009900A900B907F
S11304500C9002E0010001200843641C217820294B
S1130460F8D023290ED02B2904D02D2907D03029E8
S11304700BD00DE001000220084380B2EDE701003B
S11304800420F9E701000820F6E701001020F3E753
S11304902A290FD1396839600A68091D39600F9219
S11304A0002A05D551420F9101000420084380B26F
S11304B0641C12E000210F910AE00F9A754B9A42D6
S11304C005D093009A185200511830390F91641CCA
S11304D021780A00303A0A2AEFD321782E2903D052
S11304E00021C9430E911EE0641C21782A2907D1FA
S11304F0396839600A68091D39600E92641C12E07B
S113050000210E910AE00E9A624B9A4205D09300A4
S11305109A185200511830390E91641C21780A003F
S1130520303A0A2AEFD302A90887257829005848C7
S11305307844FF305D3000F0C6FE002801D0641C12
S113054000E0002502A83A30057002A83A3000788D
S1130550682804D12178682901D1622005E06C283B
S113056007D120786C2804D1712002A93A3108708F
S1130570641C12A806902578641C280025382AD00B
S11305801C3800D1CFE0001F022800D8CBE013387C
S113059000D1EFE0093800D1C5E0801E00D157E159
S11305A0401E00D12BE1401E022800D8BBE0001FF2
S11305B000D124E1401F00D186E0401E00D1D9E0E3
S11305C0401E26D0C01E0BD0801E00D1D2E0C01E1B
S11305D000D1CFE046E101200790252012A998E040
S11305E0386838600568001D386005950E9E002E39
S11305F003D5280000F071FE09E032000021280034
S113060000F073FE002801D0401B00E03000089089
S113061034E1386838600268001D38600020C04347
S11306200021104002AA03C212A80590069B3C2593
S113063002A803C8002904D1002802D10E9A002A76
S113064014D06D1E01950207120F3032D2B23A2A2D
S113065000DB27325A5500090A071043090901D162
S1130660002803D0059A5E19B242EAD33C20401B0D
S11306700890591905910E9988420FDA081A0A90C0
S113068002A8008F0449014002A80187F6E000BFD8
S1130690D0380000FFFFFF7FEFFF0000002900D4E7
S11306A0ECE002A93831097814220A40102A00D05B
S11306B0E4E00F99079A891A0A9A891A0D1A012DEA
S11306C000DADBE00A95D9E002A83A300078622823
S11306D019D0682806D06A280CD06C281BD0712841
S11306E008D018E0386838600168001D38600D983B
S11306F00880C3E0386838600268001D38600D98CF
S1130700C11703C2BAE0386838600168001D386058
S11307100D980870B2E0386838600168001D3860D0
S11307200D980860AAE03A68D21D072082433A6017
S113073003CA3A6002AA03C2002903D50120079024
S11307402D200CE002A8008F810703D5012007901B
S11307502B2004E0C00704D501200790202012A913
S1130760087012A8079940180590290002A800F003
S1130770FBF983E002A83A3002786C2A0BD0712A84
S113078001D06A2A07D13B68DB1D072083433B6005
S113079003CB3B6005E0396839600868091D39609E
S11307A0002102AB03C3682A03D102A803C880B2A4
S11307B00BE0622A03D102A803C8C0B205E0742A80
S11307C001D07A2A04D102A803C8002102AA03C2D4
S11307D002A838300078000731D502A803C80029E0
S11307E001D100282BD020202843782827D130207D
S11307F012A908700220079012A845701FE0390062
S113080002A83A30007800F0E2F802AA03C202A873
S1130810002904DA0798411C07912D210DE0008F6F
S1130820810704D50798411C07912B2105E0C007D7
S113083005D50798411C0791202112AA115412A82A
S1130840079940180590290002A800F0F4F815E073
S113085001200790386838600168001D386012A8CC
S113086001700BE001200790252012A90870002DCB
S113087004D00798411C079112A90D540F980799A9
S1130880401A0A99401A0899401A0B99401A099972
S1130890401A0C99401A019002A838300078400799
S11308A011D4202069460870002509E001236A4616
S11308B002A9229800F0EDFC002800D083E06D1C12
S11308C001988542F2DB079E12AD0BE0297804986B
S11308D0229A90470490002875D00D98401C0D90E2
S11308E06D1C761E002EF1D13020694608700A9ED8
S11308F0002508E001236A4602A9229800F0C9FCF9
S1130900002860D16D1CB542F4DB089E059D0BE008
S113091029780498229A90470490002853D00D987F
S1130920401C0D906D1C761E002EF1D130206946BE
S113093008700B9E002508E001236A4602A922984C
S113094000F0A7FC00283ED16D1CB542F4DB099EE3
S11309500598089945180BE029780498229A90473D
S1130960049000282FD00D98401C0D906D1C761E0D
S1130970002EF1D13020694608700C9E002508E055
S113098001236A4602A9229800F083FC00281AD1A8
S11309906D1CB542F4DB02A838300078400700D45F
S11309A049E5202069460870002500E06D1C019887
S11309B0854200DB3FE501236A4602A9229800F044
S11309C068FC0028F2D00020C04323B0F0BD0A0028
S11309D0622822D0682819D06A2808D06C2823D02D
S11309E0712804D074281FD07A2808D01CE013681A
S11309F0DB1D07208343136003CB1360704711682A
S1130A0011600868091D11600021704711681160A8
S1130A100868091D116000B20BE0116811600868D4
S1130A20091D116040B204E0116811600868091DD5
S1130A301160C1177047F3B583B000690090684630
S1130A40027C6F2A01D1082406E020211143782971
S1130A5001D00A2400E010243C25039803C80600B2
S1130A600F00642A01D0692A07D1002905DA002081
S1130A700021801BB94106000F00002F12D1002E67
S1130A8010D10398006B00280CD1082C3CD103989A
S1130A9038300078000737D53B25302000993B31AA
S1130AA0087031E06D1E0195300039002200E31713
S1130AB000F027FC3032D2B23A2A03DB6846007CCD
S1130AC05138121800984255300039002200E317BB
S1130AD000F017FC06000F0001D1002E05D003988A
S1130AE0C068009949198842DCD3082C0CD10398BA
S1130AF038300078000707D50098405D302803D0CF
S1130B006D1E3020009948553C20401B0399886194
S1130B1000994919039AD1600399096B884209DA4B
S1130B20081A039908620398008F0E49014003983C
S1130B30018715E0002913D5039938310978142267
S1130B400A40102A0CD10399496B039A5269891AF5
S1130B50039A126A891A0D1A012D01DB03980562A2
S1130B6005B0F0BDEFFF0000F3B591B006AD03C8CA
S1130B7002AA03C212A8007820210143009161292E
S1130B800BD01198006B002801D5062003E004D196
S1130B90672902D10120119908631198416848001E
S1130BA0400DAA4A904225D1080310D1119800683B
S1130BB000280CD103201199886112A800786138AB
S1130BC01A2842D3234878448A3000900BE003204B
S1130BD01199886112A8007861381A2831D31E4807
S1130BE0784474300090032200991198C06800F092
S1130BF0BDFBF1E1012817DA119800F0E5FB0128AB
S1130C0012DB002700260098612832D11198C068B1
S1130C1030210170401C411C119AD16012A909783D
S1130C2061291FD178211EE011994968884A0A4038
S1130C3088491143119A51608749461A0027FF4396
S1130C40E1E7064878441430CCE70548784410308E
S1130C50BBE700BF20330000143300000C33000056
S1130C60103300005821017011984069801C1199BB
S1130C704861002F03D1002468468780A2E10098D0
S1130C80612800D09FE01198046B002C01D5212429
S1130C9000E0641C24B2601C0090119803C804AAEC
S1130CA003C202A803C80022002300F0AFFB04A87B
S1130CB003C802D280221206514002AA03C2301F86
S1130CC06946888000270F7606AE761C00E0F61D84
S1130CD00098012830DB02A803C80022002300F09A
S1130CE0AEFB29D21C2102A800F0C2FB02A803C853
S1130CF000F04CFC05000098C01F009001280ADB9E
S1130D00280000F081FC02000B0002A803C800F0D8
S1130D10F2FC02AA03C2F61D072004E0761E29078E
S1130D20090F31702D11012D01DB401EF6D5401E37
S1130D30CDD4761E3770FAE706A8401C311A06ADEA
S1130D406D1CA14200DA0C0024B2200032D4884287
S1130D5005DA06A909184978082900DB0F2706A92E
S1130D60091801E0641E491E401E0A78BA42F9D0EF
S1130D700F2F04D106A909184A78521C4A7000287A
S1130D8006D506AD641C019800B2001D6946888032
S1130D9024B2601E0ED429180A783032D2B23A2A0C
S1130DA003DB12AB1B783A3BD2180A70401E491E73
S1130DB00028F1D51198006B002800D402E1601ED0
S1130DC011990863FEE002A803C80022002300F082
S1130DD01DFB06D202A803C880221206514002AAB3
S1130DE003C236B27D4870437D4900F011FD694667
S1130DF088800720019909B2421A00207949012A02
S1130E0020DB049202AA30CA00260F000498C0070F
S1130E1007D532003B002000290000F053FD0400F8
S1130E200D000498401004903000390032003B005B
S1130E3000F048FD06000F0004980028E6D102A83F
S1130E4030C028E054420026674F18E0FF07000036
S1130E50FFFF0F800000E03FFE030000E00707D51E
S1130E6004A803C832003B0000F02CFD06000F006C
S1130E70641004A803C804AA0CCA00F023FD04AA41
S1130E8003C2002CEAD102A803C832003B0000F0E0
S1130E90DBFD02AA03C20098662803D1019800B2C0
S1130EA00A3000E006201199096B081804901428F0
S1130EB001DB1320049030206946087606AC641CDC
S1130EC0049801283ADB02A803C800F071FB05006E
S1130ED00834042628000A2100F09DFC0F00280095
S1130EE00A2100F098FC0500641E303727700A219F
S1130EF000F091FC0F0028000A2100F08CFC050092
S1130F00641E30372770761EE4D1083404980838FC
S1130F1004900128D4DB02A803C800F049FB00F0C8
S1130F207DFB02000B0002A803C800F0E4FB0022D2
S1130F302E4B00F0C7FC02AA03C2C4E706A8401C5B
S1130F40201A06AD6D1C6A4605E0401E019909B2DF
S1130F50491E91806D1C29783029F6D000996629A4
S1130F6003D1019909B2491C04E0652901D1012189
S1130F7000E00021119A126B541824B2A04200DA46
S1130F80040024B221001DD4814204DA685C3528AF
S1130F9001DB392000E030206A1800E0641E521E94
S1130FA0491E13788342F9D0392802D1685C401C69
S1130FB06854002906D56D1E641C019800B2401CBB
S1130FC069468880019800B2009023B22A0012A8D2
S1130FD00178119800F00CF813B0F0BD977500007B
S1130FE0A0860100000024400000F03F84D7974110
S1130FF0F3B585B014001D00066B012D01DA01253F
S1131000B0A4202008430C9F662801D17F1C18E05F
S1131010672800D095E03FB20321C9438F4200DA2C
S113102093E0B74200DB90E07F1C059838300078ED
S1131030000702D4B54200DA2E003FB2F61B00D5F9
S113104000260598C06805998B693FB2012F28DAFC
S1131050591C3022C254012E04DA059A383212780F
S1131060120702D52E224254491C059A91617942F5
S11310708E4200DA77423FB27942059A5162F619FC
S1131080AE4200DA35002DB20599CD612A00210067
S1131090059B9B69C01800F069F9701B059988626B
S11310A0D9E0BD421FDA2A002100C01800F05EF921
S11310B0059989694919059A9161781B059A5062C5
S11310C0012E04DA059838300078000708D52E2060
S11310D0059AD26850540598C069401C0599C861A6
S11310E005988662B7E03A002100C01800F03EF986
S11310F005988069C019ED1B012E04DA0599383171
S11311000978090704D52E21059AD2681154401C88
S1131110059988612DB2AE4200DA35002DB22A005D
S1131120E1190598C068059B9B69C01800F01EF979
S113113005988069401905998861701B0599486272
S113114089E0612914D1702015E0B54205DA0599CA
S113115038310978090700D42E00761E00D5002600
S11311606846007E672801D1652004E0452002E03E
S1131170412902D1502069460876059881694B1CA3
S1131180C06822784254611C012E07DA059A38326D
S11311901278120702D40598836118E02E22C254F3
S11311A05B1C059A9361012E11DB6D1E2DB2AE42BC
S11311B000DA35002DB22A00C01800F0D7F80598DF
S11311C08069401905998861701B059948620598E2
S11311D0C0680599896944186846007E2070641CBB
S11311E03FB2380003D42B202070641C03E02D216F
S11311F02170641C4742002502AE08E00A226846BA
S113120000F083FC01983070009F6D1C761C39B28D
S11312100129F3DA022D08DA6846007E2021014311
S1131220652902D130202070641C002D09D13020A2
S11312302070641C07E06D1E02A8405D30302070F1
S1131240641C012DF7DA0598C0680599896940186E
S1131250201A0599C8610598383000781421014096
S1131260102914D105984069059989694018059990
S1131270496A40180599C96940180599896A40184E
S11312800599496B884202DA081A0599086207B081
S1131290F0BD79B50E0014001D00002005E0F06AD1
S11312A0401CF0620020641C6D1E002D08D02178C3
S11312B0B068009A9047B0600028F0D10020C04385
S11312C076BD00003000C9B200E0401C02788A42BA
S11312D002D0002AF9D100207047010000E0491C27
S11312E00A78002AFBD1081A7047C9B201E0401CF1
S11312F0521E002A03D003788B42F8D17047002095
S11313007047124224D0994228D970B500251B4257
S113131002D00C00002109E0002401264918644190
S1131320944200D3A41A7641F8D33100012601E097
S1131330764109D2001864416D41A41A9D41F7D247
S1131340A4185D41B619F5D3300022002B0070BDFE
S11313501B42D8D108B5C046C04608BD01D1904251
S1131360D3D202000B00002100207047124207D0A4
S11313708B0706D00B78491C0370401C521EF7D80B
S11313807047830706D00B78491C0370401C521E1B
S1131390F9D1704770B4103A03D378C9103A78C0C1
S11313A0FBD2530701D318C918C001D508C908C016
S11313B0D20704D30B880380891C801C002A01D522
S11313C00B78037070BC704730B401004B68802206
S11313D012061A4001201B031B0B4B600BD10B6838
S11313E0002B08D10DE00B686400DD0F25434D6030
S11313F05B000B60401E4C68E302F4D523031B0B17
S11314004B604B681A434A6030BC704730B40124C7
S113141064054D00EC420BD85D00EC4208D80C008A
S11314201C4364000443144304D2994200D1904203
S113143030BC7047FCD08B42FAD18242F8E730B41A
S1131440012464054D00EC420BD85D00EC4208D841
S11314500C001C4364000443144304D28B4200D1A7
S1131460824230BC7047FCD09942FAD19042F8E7EE
S113147070B504000D0060684000400D3F4EB0425E
S113148007D16068000302D12068002816D002202A
S113149070BD002804D12000FFF796FF01286BDA05
S11314A0012D0DDB311A8D420AD36068002802D564
S11314B00020334901E00020310503C4012070BD40
S11314C04142A942616806DA2E4A0A4028180005FA
S11314D01043606047E080221206114062681203E4
S11314E0120B80235B0313436360401E2D180020FE
S11314F02A003532352A02D36160206070BD002293
S11315001E23DB439D4204DA20352268636823608E
S11315106060684211D0521E9241D243D20F202300
S11315201B1A25689D402A432568C54066689E406D
S11315302E4326606368C34063606068084360604C
S11315401148824206D28020000682420ED12078C1
S1131550C0070BD52068401C20602068002805D1F6
S11315606068401C60600020C04370BD60688842B1
S1131570F9D120680028F6D1002070BDFF070000D3
S11315800000F0FFFFFF0F8001000080F4464A18BE
S113159005D200F00FF801D580174008604700F02D
S11315A009F80121C907884200D908004042604770
S11315B04A1812D2400DC90208430121C907084341
S11315C0520D40210901521A521C06D452421F32B4
S11315D001D4D0407047C01770470020704730B422
S11315E0012100220368001D002B0BD00468001D9C
S11315F00C4202D04D466D1E64192260241D1B1F2F
S1131600F0D0FAE730BC7047010009D5F4464042F7
S113161000F006F80122D20711436047010000BF21
S113162042221201D21E004207D002D4521E0018D8
S1131630FCD5C10A40051205891870478B4200D1B8
S1131640824205D98446100062468C4619006346DE
S1131650DF184C18640D7F0D3AD0661C760537D020
S1131660E61B352E34DCDB022B43DB0A0C0DC902EE
S11316702943C912202E0DDB1700203E06D01F007F
S1131680F741F3405F400026012A7741C0187141B9
S11316900DD217E01700F741F2405740F3415A408A
S11316A0B340F3405A400026801859410AD3A21C83
S11316B052050FD0C207012F724117004008CB0713
S11316C018434908641C24054208AF417041614134
S11316D0F0BC7047641C21050020F9E76B4010E062
S11316E06B40ABE7F742F3D1E943F1E72442EFD192
S11316F000200021ECE7F0B40125ED070F005F4066
S1131700EED40C00871A9C4105D2C01BA141D2190A
S1131710634169406B40AE0ADF184C18F442E1D2D1
S1131720640D7F0DE2D0E61B362ED1DCDB022B43A9
S1131730DB0AA4460C0DC9022943C90A012E28DC80
S113174004D1D6075208DF073A435B08EF0A764212
S11317509041994114D039423BD1B6194041494195
S1131760761C394204D1761C001849413942FAD01A
S1131770B9436746B74208D9A41B24052143A7E708
S11317800042EAD13642E8D1A2E7E40AE1070020A8
S11317909EE7202E0BDD203E1F00F340F7415F4003
S11317A0012A002257417E42984191410BE01700E3
S11317B0F741F2405740F3415A40B340F3405A4096
S11317C07E42904199410A0303D2641EB6194041F6
S11317D049410027641E24054208AE417841614115
S11317E0F0BC7047F446002804D4494200F013F8D2
S11317F0404260474042002905D45FD000F00BF816
S1131800404249426047494200F005F84942604776
S113181003460B43E6D40022030A8B420BD203098E
S11318208B4219D243088B422ED2411A00D2014670
S1131830524110467047FF2209023FD012068B42E4
S113184005D3121209028B4201D3121209020309B1
S11318508B4219D300E0090AC3098B4201D3CB019F
S1131860C01A524183098B4201D38B01C01A5241E1
S113187043098B4201D34B01C01A524103098B42E5
S113188001D30B01C01A5241C3088B4201D3CB00D0
S1131890C01A524183088B4201D38B00C01A5241B3
S11318A043088B4201D34B00C01A5241884200D3F3
S11318B0401A5241CFD201461046704708B5C0467F
S11318C0C04608BDF0B50E005E400125ED072E4070
S11318D0B446AE0ADF184C18F44208D2F7420ED2CE
S11318E0640D01D07F0D12D100206146F0BD05D1F9
S11318F0F74201D87F0D05D10020C143F0BDFBD1D3
S1131900640DF9D00020C143490549088FE0E4196A
S1131910C902DB0229432B43DB0A460DC0023143D3
S11319208E4630B487B295B27D432E0CADB2140C02
S11319307C43A419260C240425439CB27C43A4199B
S1131940190C7943270CC919A4B20F043C43090CA0
S1131950000C97B247432E0CBE193543ADB2170C99
S11319604743360CBF19A6B2BF193E043543240CB5
S11319703E0C36199FB24743BF19BCB23E0C8919BD
S11319801F0C47437F183E043443390C704680B221
S113199097B247432E0CBE193543ADB2170C4743DB
S11319A0360CBF19A6B2BF193E043543240C3E0CB5
S11319B036199FB24743BF19BCB23E0C89191F0C9C
S11319C047437F183E043443390C77463F0C90B2AA
S11319D078432E0C80190604ADB22E43050CA0B238
S11319E02D18120C7A435019020C80B2240CA4183E
S11319F09AB27A43121914042043120C89181B0C4E
S1131A007B43C91830BCEF0A394203D1B6194041AF
S1131A104941641E6F12BF0DE41B0BDBFF19BC426E
S1131A2011DA240500274208AE4178416141664637
S1131A303143F0BD641C05D1401C6141CF0201D388
S1131A404908F4E750E75DE7F0B40E005E40012575
S1131A50ED072E40B446AE0ADF184C18F4423BD2D0
S1131A60F74241D2640D43D07F0D38D0E41BC90244
S1131A70DB0229432B43CF0ADB0A0600B61A9F4137
S1131A8004D2641EB6197F41B6185F416812800DF6
S1131A9024180018844222DAE80C0021B6197F4188
S1131AA0B61A9F4102D2B6185F413F1C40414941DA
S1131AB0F4D3241C21DD2405B6197F41B61A9F41B5
S1131AC005D33743C60737430026012F70416141D0
S1131AD066463143F0BC7047FCD1F74205D2002082
S1131AE0C14349054908F3E704D00020C143F1E7A5
S1131AF07F0DFAD000206146ECE72442FAD1401C65
S1131B0061410F03F6D30020E2E77CB504000E0028
S1131B10150030002900FFF77BFE00904543701B41
S1131B200190684603C803C476BD0000F0B47F4941
S1131B300A68042313430B600222D24313400B6050
S1131B400823082580246D1E0E68204201D01E4300
S1131B5000E09E430E600E68022737430F6000BF0B
S1131B600E6816400E604000002DECD1F0BC7047AA
S1131B70F0B46E490B68042293430B600222D243F3
S1131B8013400B600823082580246D1E0E68204234
S1131B9001D01E4300E09E430E600E6802273743C7
S1131BA00F6000BF0E6816400E604000002DECD19F
S1131BB0F0BC704770B50400002528005038C0B24E
S1131BC0FFF7D6FF0120FFF7D3FF1020FFF7D0FF68
S1131BD080262000FFF7AAFF761EFAD16D1C082D7F
S1131BE0EBDB70BD70B582B001220121612000F0F1
S1131BF0EAFD01220121622000F0E5FD012201211C
S1131C00632000F0E0FD012201219F2000F0DBFDB4
S1131C104648016802220A430260016C49004908EF
S1131C2001643221424CFA25AD016E466A461580A4
S1131C306A46128813193380002AF9D1491EF5D156
S1131C40016C802212060A430264AE20FFF790FF63
S1131C500020FFF78DFF1020FFF78AFF4020FFF7D9
S1131C6087FF8120FFF784FFCF20FFF781FFA120AA
S1131C70FFF77EFFC820FFF77BFFA620FFF778FF62
S1131C80A820FFF775FF3F20FFF772FFD320FFF76F
S1131C906FFF0020FFF76CFFD520FFF769FF80205E
S1131CA0FFF766FFD920FFF763FFF120FFF760FF1E
S1131CB0DA20FFF75DFF1220FFF75AFFDB20FFF762
S1131CC057FF4020FFF754FF2020FFF751FF022069
S1131CD0FFF74EFF8D20FFF74BFF1420FFF748FF5F
S1131CE0A420FFF745FFA620FFF742FFAF20FFF730
S1131CF03FFF0020FFF75EFFB020FFF739FF102001
S1131D00FFF736FF0120FFF733FF0020FFF752FFF4
S1131D100A206B4669460D80694609880A191A80AB
S1131D200029F9D1401EF5D173BD0000C0F00F4069
S1131D30FFFF0000F4B582B005000C0000275FE04F
S1131D40203E3606EDB2792D01DB0025641C20000F
S1131D505038C0B2FFF70CFF280910210143684630
S1131D6041704078FFF704FF0F2001212840014310
S1131D70684601700846FFF7FBFE00BF24A0310D42
S1131D8046183078FFF7D2FE7078FFF7CFFEB078B0
S1131D90FFF7CCFEF078FFF7C9FE3079FFF7C6FEF7
S1131DA07079FFF7C3FEB079FFF7C0FEF079FFF753
S1131DB0BDFE20004F38C0B2FFF7DAFE6846407817
S1131DC0FFF7D6FE68460078FFF7D2FE307AFFF7B9
S1131DD0ADFE707AFFF7AAFEB07AFFF7A7FEF07A9D
S1131DE0FFF7A4FE307BFFF7A1FE707BFFF79EFE9A
S1131DF0B07BFFF79BFEF07BFFF798FE08357F1C56
S1131E000298FFB2C65D002E9AD103B0F0BD000067
S1131E1000000000000000000000000000000000BE
S1131E20000000F800000000000000333000000053
S1131E3000100C06100C060000000000000000005A
S1131E4040C07840C0784000043F04043F040400CC
S1131E50007088FC08300000001820FF211E0000DC
S1131E60F008F000E018000000211C031E211E00F1
S1131E7000F00888700000001E2123241927211077
S1131E8010160E000000000000000000000000001A
S1131E90000000E0180402000000000718204000C1
S1131EA000020418E00000000040201807000000B1
S1131EB0404080F0804040000202010F0102020015
S1131EC0000000F0000000000101011F01010100F9
S1131ED0000000000000000080B07000000000005E
S1131EE000000000000000000001010101010101E7
S1131EF0000000000000000000303000000000007E
S1131F000000000080601804006018060100000052
S1131F1000E010080810E000000F102020100F004F
S1131F20001010F8000000000020203F20200000D6
S1131F30007008080888700000302824222130002E
S1131F4000300888884830000018202020110E0036
S1131F500000C02010F8000000070424243F2400DF
S1131F6000F80888880808000019212020110E00B4
S1131F7000E0108888180000000F112020110E00C6
S1131F8000380808C83808000000003F00000000BE
S1131F900070880808887000001C222121221C007F
S1131FA000E010080810E0000000312222110F00A8
S1131FB0000000C0C000000000000030300000003D
S1131FC000000080000000000000806000000000AD
S1131FD000008040201008000001020408102000C6
S1131FE04040404040404000040404040404040011
S1131FF000081020408000000020100804020100A6
S1132000007048080808F0000000003036010000A5
S1132010C030C828E810E0000718272423140B0058
S11320200000C038E0000000203C230202273820D2
S113203008F8888888700000203F202020110E00B6
S1132040C0300808080838000718202020100800AD
S113205008F808080810E000203F202020100F0096
S113206008F88888E8081000203F20202320180062
S113207008F88888E8081000203F200003000000CA
S1132080C03008080838000007182020221E02006B
S113209008F808000008F808203F210101213F202A
S11320A0000808F8080800000020203F2020000055
S11320B000000808F8080800C08080807F00000045
S11320C008F888C028180800203F2001263820007E
S11320D008F8080000000000203F202020203000E5
S11320E008F8F800F8F80800203F003F003F2000FF
S11320F008F830C00008F808203F200007183F0007
S1132100E01008080810E0000F10202020100F0035
S113211008F808080808F000203F21010101000028
S1132120E01008080810E0000F18242438504F006D
S113213008F8888888887000203F2000030C30202D
S113214000708808080838000038202121221C006B
S1132150180808F8080818000000203F20000000B4
S113216008F808000008F808001F202020201F009D
S11321700878880000C83808000007380E010000FD
S1132180F80800F80008F800033C0700073C0300C7
S1132190081868808068180820302C03032C30202D
S11321A00838C800C83808000000203F200000009C
S11321B010080808C83808002038262120201800F4
S11321C0000000FE020202000000007F40404000C8
S11321D0000C30C000000000000000010638C00000
S11321E000020202FE000000004040407F000000A8
S11321F000000402020204000000000000000000CD
S113220000000000000000008080808080808080CA
S113221000020204000000000000000000000000B2
S113222000008080808000000019242222223F20A8
S113223008F8008080000000003F112020110E00EB
S11322400000008080800000000E1120202011007A
S1132250000000808088F800000E112020103F202C
S11322600000808080800000001F222222221300B0
S1132270008080F0888888180020203F20200000FB
S11322800000808080808000006B949494936000B0
S113229008F8008080800000203F210000203F20BB
S11322A000809898000000000020203F20200000BB
S11322B0000000809898000000C08080807F0000AB
S11322C008F8000080808000203F24022D30200088
S11322D0000808F8000000000020203F2020000033
S11322E08080808080808000203F20003F20003F4D
S11322F08080008080800000203F210000203F205B
S11323000000808080800000001F202020201F000B
S1132310808000808000000080FFA12020110E003A
S11323200000008080808000000E112020A0FF802B
S1132330808080008080800020203F2120000100D8
S1132340000080808080800000332424242419002D
S1132350008080E0808000000000001F202000003A
S11323608080000000808000001F202020103F207B
S1132370808080000080808000010E30080601000B
S113238080800080008080800F300C030C300F00B0
S113239000808000808080000020312E0E312000DB
S11323A0808080000080808080818E70180601000B
S11323B000808080808080000021302C2221300029
S11323C000000000807C020200000000003F40404A
S11323D000000000FF00000000000000FF000000FB
S11323E00002027C800000000040403F000000002A
S11323F000060101020204040000000000000000C5
S1132400F6B583B0040000202BE00198401CC0B254
S11324100190F8B2FFF7ACFB68464078FFF7A8FBE1
S113242068460078FFF7A4FB10260020FFF77EFB28
S1132430761EFAD16846007B4F38C0B2FFF798FB8E
S113244068464078FFF794FB68460078FFF790FBF6
S11324500020FFF76BFB6D1EFAD10E340198801C2F
S1132460C0B201900498019940180178002965D000
S113247000210126029600BF31A201E0891C921CB2
S11324801378802B0CDB0578AB42F7D15378457871
S1132490AB42F3D1C9B2C800401A4004000C029008
S11324A0E4B2772C05DB00246846007B401C6946B7
S11324B008736846077B503FF8B2FFF759FB1025B5
S11324C0200910210143684641704078FFF750FB12
S11324D02007000F0643684606703046FFF748FBA6
S11324E00298012891D0F8B2FFF742FB6846407881
S11324F0FFF73EFB68460078FFF73AFB17A0029906
S113250045180E270E262878FFF710FB6D1C761E43
S1132510F9D16846007B4F38C0B2FFF729FB684603
S11325204078FFF725FB68460078FFF721FB287801
S1132530FFF7FCFA6D1C7F1E8FD0F8E705B0F0BDE5
S1132540B0B2BBD5CEDFBAFEC0B6D6E6B5E7D7D3B8
S1132550CEAAC4FAB7FECEF1000000005C444444A5
S1132560C475464444C444445C0020202213120A27
S113257004040A091020000088C43396D4B7945682
S113258010EF08F80800003F2014263D16242019F7
S113259006192000042424242F24E4242F24242492
S11325A00400212111110907011F212121213100DA
S11325B012248008C87FC808FE2222FE00001806E4
S11325C001000F0427180721213F000002E202073F
S11325D0F28242322267A222020020203E22233EBF
S11325E0223E22223E2120001CC444444445F64499
S11325F0444444C41C00003F121212121F1212124F
S1132600123F000000F848484848FF48484848F846
S113261000000007020202021F22222222233800A5
S1132620404141414141E15149454341400000009D
S1132630000020203F0000000000000010101214D1
S1132640D03F1090101010F0000020100806010078
S113265000002320100F00001008FC038864070406
S1132660F40424CC00002018011C2020232D213048
S11326700004180000FE2222FE00FE42C25252DE76
S11326800000201F01213F003F100B040A1120000D
S1132690404844262B9212122A2642404000002130
S11326A011090503010121211F000000F0B50500F7
S11326B0002088710F1D0324ADB228000A21FFF702
S11326C0A7F8CEB228000A21FFF7A2F830367E70B0
S11326D085B228000A21FFF79BF8CEB228000A2110
S11326E0FFF796F8050030363E70BF1E641EE3D136
S11326F0F0BD7CB504000E00100000256946FFF70C
S1132700D5FF684601E06D1C401C01783029FAD0E1
S11327106846EDB2451906E02A003100E0B2FFF741
S113272009FB08346D1C28780028F5D173BDF7B572
S11327300400002700256E460BE048787070B770DF
S11327406A4668460179E0B2FFF75AFE0E34AD1CC2
S1132750EDB202984119087800280CD08028307016
S1132760EBDA77706A4668460179E0B2FFF7E2FA7D
S113277008346D1CECE703B0F0BDF8B50024022763
S113278038005038C0B2FFF7F3F91220FFF7F0F920
S11327900920FFF7EDF90748A4B205193226287875
S11327A0FFF7C4F9641C6D1C761EF8D17F1C082F3A
S11327B0E6DBF1BD80F2FF1F1F480168F822920199
S11327C00A430260704770B40B0003D0032B01D09E
S11327D0022B14D10100194A4C09A40015191F2415
S11327E02A6821408900802676001E435650696974
S11327F04A6901230440A3409A434A611AE0010054
S11328000E4B4C09A4001D191F242B68214089007C
S1132810802676005E50696901230440A34048691C
S113282018434861002A086802D19843086001E00F
S113283003430B6070BC70473880044044F2FF1FB0
S113284081B0002800D1012000216A4651706B46F6
S11328500AE01278521C1A706A4612780F2A6A46E5
S1132860F7DB5278521C5A706A465278824202D27E
S11328706A461170F0E701B0704710B59B4C2068B0
S113288080218904014321600220FFF7D9FF2068D9
S113289080214904014321600220FFF7D1FF206811
S11328A09349014014E010B5904C206890490140D0
S11328B021600220FFF7C4FF2068802149040143FE
S11328C021600220FFF7BCFF2068802189040143B6
S11328D021600220FFF7B4FF20688649014021608F
S11328E00220FFF7ADFF10BD10B5804C2068804971
S11328F0014021600220FFF7A3FF206880214904E2
S1132900014321600220FFF79BFF206879490140C1
S113291021600220FFF794FF20688021890401438D
S1132920DDE710B5714C20688021890401432160E2
S11329300220FFF785FF20688021490401432160BC
S11329400220FFF77DFF20686A49014021600220D0
S1132950FFF776FF20686649C0E770B58024A404B9
S1132960624D2868204328606869614901406961B3
S11329702869204328610220FFF762FF2868610864
S113298001432960002601202969490E014000D035
S113299001260220FFF754FF2868564901402960A8
S11329A0686920436861286804432C60300070BD66
S11329B078B44E494A6980239B0413434B6108232E
S11329C05A0500245B1E0D68060644D556002E43A6
S11329D00E606E4634700AE06D786D1C75706D463D
S11329E06D780F2D6D46F7DB2D786D1C35706D46B7
S11329F02D78022D01D27470F1E70D6815430D6036
S1132A0074700AE02D786D1C35706D462D780F2D8D
S1132A106D46F7DB6D786D1C75706D466D78022D13
S1132A2001D23470F1E70D68324E2E400E606E46CE
S1132A3034700AE06D786D1C75706D466D780F2DDD
S1132A406D46F7DB2D786D1C35706D462D78022DA3
S1132A5046D27470F1E7264E2E400E606E467470B6
S1132A600AE02D786D1C35706D462D780F2D6D465E
S1132A70F7DB6D786D1C75706D466D78022D01D293
S1132A803470F1E70D6815430D6034700AE06D7819
S1132A906D1C75706D466D780F2D6D46F7DB2D78C6
S1132AA06D1C35706D462D78022D01D27470F1E7DE
S1132AB00D68104E2E400E606E4674700AE02D783C
S1132AC06D1C35706D462D780F2D6D46F7DB6D78D6
S1132AD06D1C75706D466D78022D01D23470F1E76E
S1132AE04000002B00D06DE771BC704700F10F402F
S1132AF0FFFFFFFDFFFFFFFEF8B4082100220020C6
S1132B00AD4B5C69AD4D25405D61AD4C8D05491EF5
S1132B101E692E431E616F467A700AE03678761C71
S1132B203E706E4636780F2E6E46F7DB7678761C4E
S1132B307E706E467678022E01D23A70F1E71E68F6
S1132B4026401E603A700AE07678761C7E706E46E7
S1132B5076780F2E6E46F7DB3678761C3E706E461E
S1132B603678022E01D27A70F1E71E68E7433743C4
S1132B701F606F467A700AE03678761C3E706E46A7
S1132B8036780F2E6E46F7DB7678761C7E706E46AE
S1132B907678022E01D23A70F1E74600F6B218694F
S1132BA08701FF0F02D00120304300E03000C9B29A
S1132BB00029ACD119680C401C6059690D435D6152
S1132BC0F2BC704770B504000D001600FFF755FE07
S1132BD02000FFF7EDFEFFF7C0FE01280DD028000E
S1132BE0FFF7E6FEFFF7B9FE012806D03000FFF735
S1132BF0DFFEFFF7B2FE012801D1002070BDFFF710
S1132C0052FE012070BD70B504000D001600FFF7E0
S1132C1034FE3A20FFF7CCFE0220FFF711FEFFF747
S1132C209CFE012815D02800FFF7C2FE0220FFF702
S1132C3007FEFFF792FE01280BD0FFF71EFE2000CF
S1132C40FFF7B6FE0220FFF7FBFDFFF786FE012823
S1132C5001D1002070BDFFF74FFF3070FFF761FE18
S1132C60FFF721FE012070BDF2B5040017001D001E
S1132C700026FFF702FE3A20FFF79AFE0220FFF734
S1132C80DFFDFFF76AFE01282ED068460078FFF7C3
S1132C908FFE0220FFF7D4FDFFF75FFE012823D04B
S1132CA0FFF7EBFD2000FFF783FE0220FFF7C8FDCE
S1132CB0FFF753FE012817D02C00022C0ADB3D003D
S1132CC0641EFFF719FF2870761CFFF70DFE6D1CBC
S1132CD0641EF6D1FFF710FFB6B2B855FFF721FE18
S1132CE0FFF7E1FD0120F2BD0020F2BD10B5012285
S1132CF001219820FFF767FD012201219920FFF7A8
S1132D0062FD00220E213A20FFF75CFF04000A2036
S1132D1000F05AF8002C0AD011222A213A20FFF799
S1132D2051FF04000A2000F04FF8002C01D10020CC
S1132D3010BD012010BDF0B583B0040001A800212E
S1132D40002206C06A4600213B20FFF75CFF050015
S1132D506420FFF775FD012DF4D168460078000664
S1132D6027D5062301AA01213B20FFF77DFF05009B
S1132D706420FFF765FD012DF3D101AD0326FA2789
S1132D80FF002878000269780843800880218901BF
S1132D90884202DA7843491E04E0C143C804C00CE7
S1132DA078430849FEF734FD2080A41CAD1C761E30
S1132DB0E7D103B0F0BD000000F10F40FFFFFFFDBD
S1132DC0FFFFFFFE01E0FFFFD0B50024FEF726FC65
S1132DD00DA20CCAFEF738FE06000F0008E00948F1
S1132DE00068002803D000BF401E0028FBD1641CEB
S1132DF02000FEF713FC32003B00FEF707FBEED386
S1132E00D0BD00BFC8F3FF1F9A99999999991340AF
S1132E1008B4024B9C4608BC6047C046C1F0FF1F83
S1132E2070B572B6BF48006881000918C900002057
S1132E3000F0ACF90121162000F0E4F9BA4926208B
S1132E40FFF7E6FFFA246401322322000521002063
S1132E5000F056FA142322000021022000F050FA58
S1132E600A2322000121022000F04AFA0022012153
S1132E704C20FFF7A8FC002201214D20FFF7A3FC02
S1132E80002201214720FFF79EFC01220121462058
S1132E90FFF799FC2E2000F029FB2B2000F026FBE5
S1132EA02F2000F023FBE1214902012000F0C6FBA2
S1132EB000230A220421002000F022FA0122012129
S1132EC02020FFF780FCFEF78DFE00BFA1A20021A9
S1132ED00020FFF72CFCFFF750FC6420FFF774FF81
S1132EE0FFF704FF0028FBD00020FEF763FE62B664
S1132EF08E4E8F4C8AE08FA206216620FFF717FCC6
S1132F001020205E0921C943FEF782FC82B206210B
S1132F106C20FFF7EEFBA18864204843FF21FEF7F5
S1132F2077FCC5B22A000421002000F0C2FA2A006E
S1132F300521002000F0BDFA6420421B002102207C
S1132F4000F0B7FA28001421FEF762FC01010A1A06
S1132F500121022000F0ADFA316C01200A0B02407D
S1132F60754B0B405103194331640A0B0240D343A0
S1132F70724A0A40190303031940114331648A0950
S1132F80024080239943D2010A43326493090340E7
S1132F90D94340239A43890119401143316431686C
S1132FA001230B40DA438143104008433060A58875
S1132FB028006421FEF72CFC207028006421FEF711
S1132FC027FC08000A21FEF723FC607028000A2170
S1132FD0FEF71EFCA17000BF63A1012000F0E5FB19
S1132FE021783031C9B2012000F0CAFB6178303158
S1132FF0C9B2012000F0C4FBA1783031C9B201206C
S113300000F0BEFB4EA1012000F0CFFB4D4800783C
S11330100028FBD000204B490870FEF7CBFD2000B0
S11330200C30FFF788FE00212E2000F0E3FAA08088
S113303000212B2000F0DEFAE08000212F2000F098
S1133040D9FA208148A200210020FFF770FBA28852
S113305000215420FFF74DFB46A202210020FFF778
S113306066FBE28802215420FFF743FB44A20421BB
S11330700020FFF75CFB228904215420FFF739FB71
S113308031A206210020FFF752FB0C20205E00280D
S113309006D40A21FEF7BCFB82B206210C200DE007
S11330A024A206210C20FFF742FB0C20205E0921FC
S11330B0C943FEF7ADFB82B206211220FFF719FBCC
S11330C022A206212D20FFF732FB0E20205E0028CD
S11330D006D40A21FEF79CFB82B2062139200DE0BA
S11330E014A206213920FFF722FB0E20205E0921BD
S11330F0C943FEF78DFB82B206213F20FFF7F9FAA0
S113310013A206215A20FFF712FB1020205E00288C
S113311000D5F0E60A21FEF77BFB82B20621662089
S1133120F7E60000CCF3FF1F553D000040F00F40D0
S1133130B4F3FF1F2D000000FFDFFFFFFFEFFFFFD1
S11331400D0A0000DDF3FF1F583A0000593A000051
S11331505A3A0000C0B6D6E6B5E7D7D36C616E64C0
S11331607A6F2E636E00000041445F56414C554512
S11331703A00000053554E5F56414C55453A000005
S113318054454D505F56414C55453A0010B50B4AD5
S11331901368802424041C4314600022084B1A6022
S11331A0084A00011018016003218160C1680122EE
S11331B00A43C260162000F00BF810BD3C800440A6
S11331C000700340007103401C4908607047000010
S11331D080B5212804DB00BF1CA000F011FB01BD59
S11331E001210211D20E121852115201801A81408B
S11331F0134802680A4302601248026811430160DE
S113320001BD000038B505000C000020212D03DBB2
S11332101CA000F0F5FA0120042C03DB28A000F028
S1133220EFFA31BD002808D107486910890F491900
S11332308905090E8900A201425431BD08ED00E060
S113324080E200E000E100E000E400E00A455252C0
S11332502120496E76616C6964204952512076615F
S11332606C75652070617373656420746F20656E7E
S113327061626C65206972712066756E6374696F32
S11332806E210A000A4552522120496E76616C690A
S113329064204952512076616C75652070617373A6
S11332A0656420746F207072696F72697479206923
S11332B072712066756E6374696F6E210A00000076
S11332C00A4552522120496E76616C6964207072FD
S11332D0696F726974792076616C756520706173A9
S11332E073656420746F207072696F7269747920D9
S11332F06972712066756E6374696F6E210A0000CD
S1133300FCB504000D00170072480068FA2189001A
S1133310484340080090000C3900FEF77CFA80B264
S1133320002600E0761C0100F1400129FADAFA20B7
S11333308000874200D2761C0098F0403900FEF7E6
S11333406AFA87B20198791C48436421FEF763FA4C
S1133350002C04D0022C00D18CE06CD318E05E4920
S11333608A6B80235B0413438B63290005292FD8C0
S113337001A2525C974400BF065A6E8296AA57492E
S113338089684B68574A1A408023DB0013434B601B
S11333905349A2008A58E9005318D9680424A14368
S11333A0D9602821D9604C490C6880256D042543D7
S11333B00D600C6880256D0225430D607107490F6F
S11333C008240C431460976080B218610020506098
S11333D0F3BD424989688B68424A1A408023DB0066
S11333E013438B60D4E73D498968CB683D4A1A4052
S11333F08023DB001343CB60CAE7384989680B6933
S1133400384A1A408023DB0013430B61C0E7334979
S113341089680B6A334A1A40C0239B0013430B622A
S1133420B6E72E4989684B6A2E4A1A40C0239B008E
S113343013434B62ACE728498A6B80239B041343F4
S11334408B63002D02D0012D0AD0F3BD23490968F6
S11334500B6B244A1A40C0239B0013430B6397E76A
S11334601E4909684B6B1F4A1A40C0239B00134333
S11334704B638DE718498A6B8023DB0413438B630A
S1133480002D02D0012D0AD0F3BD144949688B6C7C
S1133490144A1A40C0239B0013438B6478E70F49F6
S11334A04968CB6C0F4A1A40C0239B001343CB647A
S11334B06EE730B50C000C4980000D58A868401C1C
S11334C0424310006421FEF7A6F9E100691808617F
S11334D030BD0000CCF3FF1F0480044044F2FF1F02
S11334E06CF2FF1FFFF8FFFF6CF2FF1F50494A6A9E
S11334F080231B0513434B620A6890239A430A6096
S113350000220A60002867D003286CD0042818D051
S1133510072824D024281BD0252827D0262828D0C3
S113352028282DD029282ED02B282FD02C2830D055
S11335302D2835D02E283AD02F283FD0372844D0F4
S113354070473C480069416D3B4A0A4042657047F8
S113355038480069416F384A0A4042677047354825
S11335600069C16D344A0A40C26570473148C06879
S113357026E03048C06841692F4A0A4042617047DA
S11335802C48406815E02B48406819E029488068B9
S113359001E0284840688168274A0A4082607047F1
S11335A024484068C168244A0A40C26070472148E0
S11335B080680168204A0A40026070471D4880689C
S11335C041681D4A0A40426070471A480069816F89
S11335D0194A0A408267704716480069016D164A05
S11335E00A400265704713480069816D124A0A4017
S11335F0826570470D4A89000C230B405021194302
S113360091604109090104230B43D360C006C00E35
S1133610402101431160802011680140FCD01069F1
S1133620116880239943116080B2704700B0034051
S11336301880044044F2FF1FFFF8FFFF70B5002814
S113364047D1674A5068C0229200664B046C1C4004
S113365014430464446C23401A434264624A106B6A
S1133660130D03431363614DE878F3230340EB70B8
S11336700024AC7010688023DB04034313601068DB
S113368080235B0203431360594800684008FA2210
S1133690920050430901FEF7BEF82A781F21E02367
S11336A013400204120E0A401A432A7068700F2055
S11336B0A872AC70AC712C726C72287901432971B8
S11336C06879C02101436971E8782C210143E970CC
S11336D070BD012802D0022811D023E0404A1469A9
S11336E0C02292003F4B65681D4015436560256804
S11336F02B401A4322603C4A136BD40C10E0384A26
S1133700D468C0229200374BA5681D401543A560BC
S1133710E5682B401A43E260334A136B802464014A
S11337201C431463334A800015182D1F2868C2787F
S1133730F3231340C3700024286884702E48006863
S1133740FA22920050430901FEF765F82A681678B8
S11337501F21E02333400604360E0E401E4316702C
S11337602A685070286884702868847128680171F8
S1133770286844712868C1782C220A43C27070BD3D
S113378010B48022002805D11C4803781342FBD0D2
S1133790C17008E0174B84001B191B1F1B681C79A0
S11337A01442F7D0D97110BC704770B48022134B07
S11337B009E0104D8600AD192D1F2D682E79164293
S11337C0F7D0EC71491C0C78002C06D00028F0D1FD
S11337D01D781542FCD0DC70F4E770BC7047000023
S11337E044F2FF1FFFF8FFFF0480044000A00640DE
S11337F0C8F3FF1F78F2FF1FCCF3FF1F04A006409D
S11338000EB400B582B003A900916B4602000121F9
S1133810034878440A30FCF7FBFD029906B00847D8
S11338205907000030B5FFB084B0194A12680192FC
S1133830019A019B174CA34202D18000115023E04E
S113384000236C46238002AD0BE06B461B88248862
S1133850A40014599B00EC506B461B885B1C6C46FF
S113386023806B461B88802BEFDB02AA800011505B
S113387000F012F8002000F01DF802AB8022D20004
S11338800021002000F051F87FB004B030BD00BF2B
S113389008ED00E000F0FF1F802040490A78024252
S11338A0FCD0302008703E480168802252020A434E
S11338B00260704738B48002009038480921C17111
S11338C06946897881716946497841716946097800
S11338D00171302101708022027003781342FCD000
S11338E0312304781C4201D001201CE0009C2D4DA2
S11338F0AC4217D20624C471002484710424447198
S11339000C240471FF24C47284724472FE24047271
S11339100170027001781142FCD00078184201D085
S1133920022000E0002032BC7047F8B404000D000F
S11339301100A80701D001202DE018480622C27109
S1133940A20252190092002631228024302504E07C
S1133950361D009F3F1D00971B1D8E421AD26F46D5
S1133960BF7887716F467F7847716F463F780771DC
S1133970DF78C7729F7887725F7847721F78077203
S11339800570047007782742FCD007781742DFD00F
S1133990022000E00020F2BC70470000000002405A
S11339A00C3000F0010800000090044000A0044026
S11339B000B0044000C0044000D0044000F00F40B8
S11339C040F00F4080F00F40C0F00F4000F10F4076
S11339D0008003400090034000A0034000B0064074
S11339E000C00640000000000000000080C0C0606D
S11339F0301018080414101A18181C1C1C1C3C3C09
S1133A003C3C7C7CFCFCF8F8F0F0E0E0C08000007A
S1133A10000000000000000000C0F0F87E1F070353
S1133A200000000000000000000000000000000092
S1133A30000000000000000101038FFFFFFFFFFFF3
S1133A40FFFEFCF8E080000000F0FFFFFF0700F835
S1133A50F8F0F0E0E0E0C0C0C0C0C0C0C0C0C0C06A
S1133A60C0C0C0E0E0E0F0F0F8F8FCFEFFFFFFFFAC
S1133A70FFFFFFFFFFFFFFFFF800000FFFFFFFF84E
S1133A80C00F7FFFFFFFFFFFFFFFFFFFFF3F1F0F81
S1133A900703030101010000000000000000000012
S1133AA000000000010101030307030000000003FC
S1133AB00F1F7FFEFCF1E7CF9F3F7FFFFFFFFFFC5F
S1133AC0F0E0E0C080808000000000000000000002
S1133AD00000000000800000000000000000000062
S1133AE0000000000000010303070F0F1E1E1C3915
S1133AF0393B7373776767676767672727363616B7
S1133B00120A0A0404020100000000000000000080
S1133B10FFFFFFFFFFFFFFFF30B5404C302801D10E
S1133B20002002E0322803D10120182121700EE088
S1133B30832821DA13258100081880003221FDF73B
S1133B4067FE18382570C0B2202800DB1F20607083
S1133B5060781830322148432178491CFDF758FE1B
S1133B60801E002121711921FDF755FEC0B20928DC
S1133B7000DB0820607130BD0D25D32803DAC100B5
S1133B80081A4000DAE710202570E0E770B5FFF767
S1133B90C3FF234A28205070B02010701020917960
S1133BA00142FCD103209179890801400229F9D10D
S1133BB01F211A4B1C781F252540157100245471B0
S1133BC01C7924075D792D04E026F6022E40264355
S1133BD0144C266040245B781F251D4025435571F5
S1133BE0202395791D42FCD093792342FCD013788D
S1133BF09B069B0E137093799B080340032BFAD109
S1133C005079127908401830322358431140491C26
S1133C10FDF701FEFA218900484370BDD0F3FF1F70
S1133C20004006404480044010B51049104C8C42BA
S1133C3004D0C02292002000FDF7ACFB2000FFF767
S1133C40C3FA0C490C48421A02D00C48FDF78EFB0B
S1133C500B480C49091A01D000F03EF80A490B48F8
S1133C60421A02D00A48FDF781FB10BD0000000093
S1133C7000F0FF1FA8390000183B000044F2FF1FAA
S1133C80B4F3FF1FE0F3FF1F24380000A83900003D
S1133C90C0F0FF1F094205D0830705D00270401C05
S1133CA0491EF9D170470000130030B41400150008
S1133CB0103902D310393CC0FCD2490700D30CC0E0
S1133CC000D504C0890002D30280801C002900D5DD
S1133CD0027030BC704700000022DBE70022E3E7FB
S1133CE080B500F033F802000023DB4310689842EB
S1133CF004D011000220ABBE00201060506898422E
S1133D0004D0111D0220ABBE0020506001BD000094
S1133D1010B584B0040000F019F8A100421810682E
S1133D200021C94388420DD107A00090002C01D185
S1133D30002000E004200190032002906946012045
S1133D40ABBE106004B010BD3A74740000487047F4
S1133D50ACF3FF1F70B501241548016821430160CD
S1133D60144DEE79761CEE712C70F00700D46C7053
S1133D70B00700D1AC70F6B230000A21FDF748FD5F
S1133D80002900D1EC70300700D12C7130001421CF
S1133D90FDF73EFD002900D16C713000C821FDF70C
S1133DA037FD002902D1AC710020E87170BD00001C
S1133DB00C710340D8F3FF1F80B50348016800BFAE
S1133DC002A0FFF71DFD01BD04ED00E00A2A2A2A26
S1133DD02A64656661756C745F69737220656E74BC
S1133DE065726564206F6E20766563746F7220253A
S1133DF0642A2A2A2A2A0D0A0A00000010B5002083
S1133E000A490860FFF710FFFEF7D6FC3020FFF7E1
S1133E10BDFE074C2060074909684903490F491C46
S1133E20FDF7F9FC6060FEF7FBFFFEE7008104404C
S1133E30C8F3FF1F4480044010B507497944183182
S1133E40064C7C44163404E0081D0A688918884727
S1133E500100A142F8D110BD9C000000A8000000A0
S1133E6038B504000025ED43AC4209D0694608701A
S1133E700122012000F006F8012801D1200032BD02
S1133E80280032BD80B5002802D400F003F802BD3A
S1133E90002002BD80B5002901D1002002BD012807
S1133EA001D0022802D100F004F802BD00F011F89C
S1133EB002BD30B583B00C0015000120FFF728FFC8
S1133EC000900194029569460520ABBE281A03B000
S1133ED030BD10B584B00300140000930191029426
S1133EE069460520ABBE01221900201AC046C0460F
S1133EF004B010BDEBD6FFFF2C000000B4F3FF1F8D
S1133F00000000000120C046002801D0FFF794FF04
S1133F100020C046C046FEF783FF00F000F880B5DD
S1133F2000F002F801BD00000746384600F002F830
S1133F30FBE7000080B5FFF7D3FE024A110018200A
S1133F40ABBEFBE726000200002000210022002374
S1133F50002400250026002762B6FFF74FFFFEE786
S1133F60686A6C747A4C00006E616E004E414E00BB
S1133F70696E6600494E460038B505000C00200005
S1133F80FFF76EFFA04200D00025280032BDC046D6
S10D3F90C046C046C046FFF7B5FF67
S9033F8F2E
